{
  "contractName": "PartyFactory",
  "abi": [
    {
      "inputs": [
        {
          "internalType": "address",
          "name": "_feeToSetter",
          "type": "address"
        }
      ],
      "payable": false,
      "stateMutability": "nonpayable",
      "type": "constructor"
    },
    {
      "anonymous": false,
      "inputs": [
        {
          "indexed": true,
          "internalType": "address",
          "name": "token0",
          "type": "address"
        },
        {
          "indexed": true,
          "internalType": "address",
          "name": "token1",
          "type": "address"
        },
        {
          "indexed": false,
          "internalType": "address",
          "name": "pair",
          "type": "address"
        },
        {
          "indexed": false,
          "internalType": "uint256",
          "name": "",
          "type": "uint256"
        }
      ],
      "name": "PairCreated",
      "type": "event"
    },
    {
      "constant": true,
      "inputs": [],
      "name": "INIT_CODE_PAIR_HASH",
      "outputs": [
        {
          "internalType": "bytes32",
          "name": "",
          "type": "bytes32"
        }
      ],
      "payable": false,
      "stateMutability": "view",
      "type": "function"
    },
    {
      "constant": true,
      "inputs": [
        {
          "internalType": "uint256",
          "name": "",
          "type": "uint256"
        }
      ],
      "name": "allPairs",
      "outputs": [
        {
          "internalType": "address",
          "name": "",
          "type": "address"
        }
      ],
      "payable": false,
      "stateMutability": "view",
      "type": "function"
    },
    {
      "constant": true,
      "inputs": [],
      "name": "feeTo",
      "outputs": [
        {
          "internalType": "address",
          "name": "",
          "type": "address"
        }
      ],
      "payable": false,
      "stateMutability": "view",
      "type": "function"
    },
    {
      "constant": true,
      "inputs": [],
      "name": "feeToSetter",
      "outputs": [
        {
          "internalType": "address",
          "name": "",
          "type": "address"
        }
      ],
      "payable": false,
      "stateMutability": "view",
      "type": "function"
    },
    {
      "constant": true,
      "inputs": [
        {
          "internalType": "address",
          "name": "",
          "type": "address"
        },
        {
          "internalType": "address",
          "name": "",
          "type": "address"
        }
      ],
      "name": "getPair",
      "outputs": [
        {
          "internalType": "address",
          "name": "",
          "type": "address"
        }
      ],
      "payable": false,
      "stateMutability": "view",
      "type": "function"
    },
    {
      "constant": true,
      "inputs": [],
      "name": "allPairsLength",
      "outputs": [
        {
          "internalType": "uint256",
          "name": "",
          "type": "uint256"
        }
      ],
      "payable": false,
      "stateMutability": "view",
      "type": "function"
    },
    {
      "constant": false,
      "inputs": [
        {
          "internalType": "address",
          "name": "tokenA",
          "type": "address"
        },
        {
          "internalType": "address",
          "name": "tokenB",
          "type": "address"
        }
      ],
      "name": "createPair",
      "outputs": [
        {
          "internalType": "address",
          "name": "pair",
          "type": "address"
        }
      ],
      "payable": false,
      "stateMutability": "nonpayable",
      "type": "function"
    },
    {
      "constant": false,
      "inputs": [
        {
          "internalType": "address",
          "name": "_feeTo",
          "type": "address"
        }
      ],
      "name": "setFeeTo",
      "outputs": [],
      "payable": false,
      "stateMutability": "nonpayable",
      "type": "function"
    },
    {
      "constant": false,
      "inputs": [
        {
          "internalType": "address",
          "name": "_feeToSetter",
          "type": "address"
        }
      ],
      "name": "setFeeToSetter",
      "outputs": [],
      "payable": false,
      "stateMutability": "nonpayable",
      "type": "function"
    }
  ],
  "bytecode": "0x608060405234801561001057600080fd5b50604051612ae9380380612ae98339818101604052602081101561003357600080fd5b5051600180546001600160a01b0319166001600160a01b03909216919091179055612a86806100636000396000f3fe608060405234801561001057600080fd5b50600436106100935760003560e01c80635855a25a116100665780635855a25a146100fb578063a2e74af614610103578063c9c653961461012b578063e6a4390514610159578063f46901ed1461018757610093565b8063017e7e5814610098578063094b7415146100bc5780631e3dd18b146100c4578063574f2ba3146100e1575b600080fd5b6100a06101ad565b604080516001600160a01b039092168252519081900360200190f35b6100a06101bc565b6100a0600480360360208110156100da57600080fd5b50356101cb565b6100e96101f2565b60408051918252519081900360200190f35b6100e96101f8565b6101296004803603602081101561011957600080fd5b50356001600160a01b031661028b565b005b6100a06004803603604081101561014157600080fd5b506001600160a01b03813581169160200135166102ff565b6100a06004803603604081101561016f57600080fd5b506001600160a01b0381358116916020013516610622565b6101296004803603602081101561019d57600080fd5b50356001600160a01b0316610648565b6000546001600160a01b031681565b6001546001600160a01b031681565b600381815481106101d857fe5b6000918252602090912001546001600160a01b0316905081565b60035490565b604051610207602082016106bc565b6020820181038252601f19601f820116604052506040516020018082805190602001908083835b6020831061024d5780518252601f19909201916020918201910161022e565b6001836020036101000a0380198251168184511680821785525050505050509050019150506040516020818303038152906040528051906020012081565b6001546001600160a01b031633146102dd576040805162461bcd60e51b815260206004820152601060248201526f2830b93a3c9d102327a92124a22222a760811b604482015290519081900360640190fd5b600180546001600160a01b0319166001600160a01b0392909216919091179055565b6000816001600160a01b0316836001600160a01b03161415610368576040805162461bcd60e51b815260206004820152601a60248201527f50617274793a204944454e544943414c5f414444524553534553000000000000604482015290519081900360640190fd5b600080836001600160a01b0316856001600160a01b03161061038b57838561038e565b84845b90925090506001600160a01b0382166103e4576040805162461bcd60e51b815260206004820152601360248201527250617274793a205a45524f5f4144445245535360681b604482015290519081900360640190fd5b6001600160a01b03828116600090815260026020908152604080832085851684529091529020541615610453576040805162461bcd60e51b815260206004820152601260248201527150617274793a20504149525f45584953545360701b604482015290519081900360640190fd5b606060405180602001610465906106bc565b6020820181038252601f19601f8201166040525090506000838360405160200180836001600160a01b03166001600160a01b031660601b8152601401826001600160a01b03166001600160a01b031660601b815260140192505050604051602081830303815290604052805190602001209050808251602084016000f56040805163485cc95560e01b81526001600160a01b038781166004830152868116602483015291519297509087169163485cc9559160448082019260009290919082900301818387803b15801561053857600080fd5b505af115801561054c573d6000803e3d6000fd5b505050506001600160a01b0384811660008181526002602081815260408084208987168086529083528185208054978d166001600160a01b031998891681179091559383528185208686528352818520805488168517905560038054600181018255958190527fc2575a0e9e593c00f959f8c92f12db2869c3395a3b0502d05e2516446f71f85b90950180549097168417909655925483519283529082015281517f0d3648bd0f6ba80134a33ba9275ac585d9d315f0ad8355cddefde31afa28d0e9929181900390910190a35050505092915050565b60026020908152600092835260408084209091529082529020546001600160a01b031681565b6001546001600160a01b0316331461069a576040805162461bcd60e51b815260206004820152601060248201526f2830b93a3c9d102327a92124a22222a760811b604482015290519081900360640190fd5b600080546001600160a01b0319166001600160a01b0392909216919091179055565b612388806106ca8339019056fe60806040526001600c5534801561001557600080fd5b5060405146908060526123368239604080519182900360520182208282018252600d83526c594159204c697175696469747960981b6020938401528151808301835260018152603160f81b908401528151808401919091527f7c4f895b577c3e228c8ee66539bc09e9fabad4ab81f1a44c33832d2ec2de8008818301527fc89efdaa54c0f20c7adf612882df0950f5a951637e0307cdcb4c672f298b8bc6606082015260808101949094523060a0808601919091528151808603909101815260c09094019052825192019190912060035550600580546001600160a01b0319163317905561222e806101086000396000f3fe608060405234801561001057600080fd5b50600436106101a95760003560e01c80636a627842116100f9578063ba9a7a5611610097578063d21220a711610071578063d21220a714610534578063d505accf1461053c578063dd62ed3e1461058d578063fff6cae9146105bb576101a9565b8063ba9a7a56146104fe578063bc25cf7714610506578063c45a01551461052c576101a9565b80637ecebe00116100d35780637ecebe001461046557806389afcb441461048b57806395d89b41146104ca578063a9059cbb146104d2576101a9565b80636a6278421461041157806370a08231146104375780637464fc3d1461045d576101a9565b806323b872dd116101665780633644e515116101405780633644e515146103cb578063485cc955146103d35780635909c0d5146104015780635a3d549314610409576101a9565b806323b872dd1461036f57806330adf81f146103a5578063313ce567146103ad576101a9565b8063022c0d9f146101ae57806306fdde031461023c5780630902f1ac146102b9578063095ea7b3146102f15780630dfe16811461033157806318160ddd14610355575b600080fd5b61023a600480360360808110156101c457600080fd5b8135916020810135916001600160a01b0360408301351691908101906080810160608201356401000000008111156101fb57600080fd5b82018360208201111561020d57600080fd5b8035906020019184600183028401116401000000008311171561022f57600080fd5b5090925090506105c3565b005b610244610b1e565b6040805160208082528351818301528351919283929083019185019080838360005b8381101561027e578181015183820152602001610266565b50505050905090810190601f1680156102ab5780820380516001836020036101000a031916815260200191505b509250505060405180910390f35b6102c1610b47565b604080516001600160701b03948516815292909316602083015263ffffffff168183015290519081900360600190f35b61031d6004803603604081101561030757600080fd5b506001600160a01b038135169060200135610b71565b604080519115158252519081900360200190f35b610339610b88565b604080516001600160a01b039092168252519081900360200190f35b61035d610b97565b60408051918252519081900360200190f35b61031d6004803603606081101561038557600080fd5b506001600160a01b03813581169160208101359091169060400135610b9d565b61035d610c37565b6103b5610c5b565b6040805160ff9092168252519081900360200190f35b61035d610c60565b61023a600480360360408110156103e957600080fd5b506001600160a01b0381358116916020013516610c66565b61035d610ce6565b61035d610cec565b61035d6004803603602081101561042757600080fd5b50356001600160a01b0316610cf2565b61035d6004803603602081101561044d57600080fd5b50356001600160a01b0316610fee565b61035d611000565b61035d6004803603602081101561047b57600080fd5b50356001600160a01b0316611006565b6104b1600480360360208110156104a157600080fd5b50356001600160a01b0316611018565b6040805192835260208301919091528051918290030190f35b6102446113ba565b61031d600480360360408110156104e857600080fd5b506001600160a01b0381351690602001356113da565b61035d6113e7565b61023a6004803603602081101561051c57600080fd5b50356001600160a01b03166113ed565b610339611554565b610339611563565b61023a600480360360e081101561055257600080fd5b506001600160a01b03813581169160208101359091169060408101359060608101359060ff6080820135169060a08101359060c00135611572565b61035d600480360360408110156105a357600080fd5b506001600160a01b0381358116916020013516611770565b61023a61178d565b600c5460011461060a576040805162461bcd60e51b815260206004820152600d60248201526c14185c9d1e4e881313d0d2d151609a1b604482015290519081900360640190fd5b6000600c558415158061061d5750600084115b6106585760405162461bcd60e51b81526004018080602001828103825260218152602001806121b56021913960400191505060405180910390fd5b600080610663610b47565b5091509150816001600160701b0316871080156106885750806001600160701b031686105b6106d9576040805162461bcd60e51b815260206004820152601d60248201527f50617274793a20494e53554646494349454e545f4c4951554944495459000000604482015290519081900360640190fd5b60065460075460009182916001600160a01b039182169190811690891682148015906107175750806001600160a01b0316896001600160a01b031614155b61075c576040805162461bcd60e51b815260206004820152601160248201527050617274793a20494e56414c49445f544f60781b604482015290519081900360640190fd5b8a1561076d5761076d828a8d6118eb565b891561077e5761077e818a8c6118eb565b861561083957886001600160a01b0316636dca4cd4338d8d8c8c6040518663ffffffff1660e01b815260040180866001600160a01b03166001600160a01b03168152602001858152602001848152602001806020018281038252848482818152602001925080828437600081840152601f19601f8201169050808301925050509650505050505050600060405180830381600087803b15801561082057600080fd5b505af1158015610834573d6000803e3d6000fd5b505050505b604080516370a0823160e01b815230600482015290516001600160a01b038416916370a08231916024808301926020929190829003018186803b15801561087f57600080fd5b505afa158015610893573d6000803e3d6000fd5b505050506040513d60208110156108a957600080fd5b5051604080516370a0823160e01b815230600482015290519195506001600160a01b038316916370a0823191602480820192602092909190829003018186803b1580156108f557600080fd5b505afa158015610909573d6000803e3d6000fd5b505050506040513d602081101561091f57600080fd5b5051925060009150506001600160701b0385168a90038311610942576000610951565b89856001600160701b03160383035b9050600089856001600160701b031603831161096e57600061097d565b89856001600160701b03160383035b9050600082118061098e5750600081115b6109df576040805162461bcd60e51b815260206004820181905260248201527f50617274793a20494e53554646494349454e545f494e5055545f414d4f554e54604482015290519081900360640190fd5b6000610a136109f584600263ffffffff611a7e16565b610a07876103e863ffffffff611a7e16565b9063ffffffff611ae116565b90506000610a2b6109f584600263ffffffff611a7e16565b9050610a5c620f4240610a506001600160701b038b8116908b1663ffffffff611a7e16565b9063ffffffff611a7e16565b610a6c838363ffffffff611a7e16565b1015610aaa576040805162461bcd60e51b815260206004820152600860248201526750617274793a204b60c01b604482015290519081900360640190fd5b5050610ab884848888611b31565b60408051838152602081018390528082018d9052606081018c905290516001600160a01b038b169133917fd78ad95fa46c994b6551d0da85fc275fe613ce37657fb8d5e3d130840159d8229181900360800190a350506001600c55505050505050505050565b6040518060400160405280600d81526020016c594159204c697175696469747960981b81525081565b6008546001600160701b0380821692600160701b830490911691600160e01b900463ffffffff1690565b6000610b7e338484611cf2565b5060015b92915050565b6006546001600160a01b031681565b60005481565b6001600160a01b038316600090815260026020908152604080832033845290915281205460001914610c22576001600160a01b0384166000908152600260209081526040808320338452909152902054610bfd908363ffffffff611ae116565b6001600160a01b03851660009081526002602090815260408083203384529091529020555b610c2d848484611d54565b5060019392505050565b7f6e71edae12b1b97f4d1f60370fef10105fa2faae0126114a169c64845d6126c981565b600a81565b60035481565b6005546001600160a01b03163314610cb8576040805162461bcd60e51b815260206004820152601060248201526f2830b93a3c9d102327a92124a22222a760811b604482015290519081900360640190fd5b600680546001600160a01b039384166001600160a01b03199182161790915560078054929093169116179055565b60095481565b600a5481565b6000600c54600114610d3b576040805162461bcd60e51b815260206004820152600d60248201526c14185c9d1e4e881313d0d2d151609a1b604482015290519081900360640190fd5b6000600c81905580610d4b610b47565b50600654604080516370a0823160e01b815230600482015290519395509193506000926001600160a01b03909116916370a08231916024808301926020929190829003018186803b158015610d9f57600080fd5b505afa158015610db3573d6000803e3d6000fd5b505050506040513d6020811015610dc957600080fd5b5051600754604080516370a0823160e01b815230600482015290519293506000926001600160a01b03909216916370a0823191602480820192602092909190829003018186803b158015610e1c57600080fd5b505afa158015610e30573d6000803e3d6000fd5b505050506040513d6020811015610e4657600080fd5b505190506000610e65836001600160701b03871663ffffffff611ae116565b90506000610e82836001600160701b03871663ffffffff611ae116565b90506000610e908787611e0e565b60005490915080610ecd57610eb96103e8610a07610eb4878763ffffffff611a7e16565b611f6c565b9850610ec860006103e8611fbe565b610f1c565b610f196001600160701b038916610eea868463ffffffff611a7e16565b81610ef157fe5b046001600160701b038916610f0c868563ffffffff611a7e16565b81610f1357fe5b04612054565b98505b60008911610f5b5760405162461bcd60e51b81526004018080602001828103825260248152602001806121916024913960400191505060405180910390fd5b610f658a8a611fbe565b610f7186868a8a611b31565b8115610fa157600854610f9d906001600160701b0380821691600160701b90041663ffffffff611a7e16565b600b555b6040805185815260208101859052815133927f4c209b5fc8ad50758f13e2e1088ba56a560dff690a1c6fef26394f4c03821c4f928290030190a250506001600c5550949695505050505050565b60016020526000908152604090205481565b600b5481565b60046020526000908152604090205481565b600080600c54600114611062576040805162461bcd60e51b815260206004820152600d60248201526c14185c9d1e4e881313d0d2d151609a1b604482015290519081900360640190fd5b6000600c81905580611072610b47565b50600654600754604080516370a0823160e01b815230600482015290519496509294506001600160a01b039182169391169160009184916370a08231916024808301926020929190829003018186803b1580156110ce57600080fd5b505afa1580156110e2573d6000803e3d6000fd5b505050506040513d60208110156110f857600080fd5b5051604080516370a0823160e01b815230600482015290519192506000916001600160a01b038516916370a08231916024808301926020929190829003018186803b15801561114657600080fd5b505afa15801561115a573d6000803e3d6000fd5b505050506040513d602081101561117057600080fd5b50513060009081526001602052604081205491925061118f8888611e0e565b600054909150806111a6848763ffffffff611a7e16565b816111ad57fe5b049a50806111c1848663ffffffff611a7e16565b816111c857fe5b04995060008b1180156111db575060008a115b6112165760405162461bcd60e51b81526004018080602001828103825260248152602001806121d66024913960400191505060405180910390fd5b611220308461206c565b61122b878d8d6118eb565b611236868d8c6118eb565b604080516370a0823160e01b815230600482015290516001600160a01b038916916370a08231916024808301926020929190829003018186803b15801561127c57600080fd5b505afa158015611290573d6000803e3d6000fd5b505050506040513d60208110156112a657600080fd5b5051604080516370a0823160e01b815230600482015290519196506001600160a01b038816916370a0823191602480820192602092909190829003018186803b1580156112f257600080fd5b505afa158015611306573d6000803e3d6000fd5b505050506040513d602081101561131c57600080fd5b5051935061132c85858b8b611b31565b811561135c57600854611358906001600160701b0380821691600160701b90041663ffffffff611a7e16565b600b555b604080518c8152602081018c905281516001600160a01b038f169233927fdccd412f0b1252819cb1fd330b93224ca42612892bb3f4f789976e6d81936496929081900390910190a35050505050505050506001600c81905550915091565b604051806040016040528060048152602001637859415960e01b81525081565b6000610b7e338484611d54565b6103e881565b600c54600114611434576040805162461bcd60e51b815260206004820152600d60248201526c14185c9d1e4e881313d0d2d151609a1b604482015290519081900360640190fd5b6000600c55600654600754600854604080516370a0823160e01b815230600482015290516001600160a01b0394851694909316926114e392859287926114de926001600160701b03169185916370a0823191602480820192602092909190829003018186803b1580156114a657600080fd5b505afa1580156114ba573d6000803e3d6000fd5b505050506040513d60208110156114d057600080fd5b50519063ffffffff611ae116565b6118eb565b600854604080516370a0823160e01b8152306004820152905161154a92849287926114de92600160701b90046001600160701b0316916001600160a01b038616916370a0823191602480820192602092909190829003018186803b1580156114a657600080fd5b50506001600c5550565b6005546001600160a01b031681565b6007546001600160a01b031681565b428410156115b8576040805162461bcd60e51b815260206004820152600e60248201526d14185c9d1e4e881156141254915160921b604482015290519081900360640190fd5b6003546001600160a01b0380891660008181526004602090815260408083208054600180820190925582517f6e71edae12b1b97f4d1f60370fef10105fa2faae0126114a169c64845d6126c98186015280840196909652958d166060860152608085018c905260a085019590955260c08085018b90528151808603909101815260e08501825280519083012061190160f01b6101008601526101028501969096526101228085019690965280518085039096018652610142840180825286519683019690962095839052610162840180825286905260ff89166101828501526101a284018890526101c28401879052519193926101e280820193601f1981019281900390910190855afa1580156116d3573d6000803e3d6000fd5b5050604051601f1901519150506001600160a01b038116158015906117095750886001600160a01b0316816001600160a01b0316145b61175a576040805162461bcd60e51b815260206004820152601860248201527f50617274793a20494e56414c49445f5349474e41545552450000000000000000604482015290519081900360640190fd5b611765898989611cf2565b505050505050505050565b600260209081526000928352604080842090915290825290205481565b600c546001146117d4576040805162461bcd60e51b815260206004820152600d60248201526c14185c9d1e4e881313d0d2d151609a1b604482015290519081900360640190fd5b6000600c55600654604080516370a0823160e01b815230600482015290516118e4926001600160a01b0316916370a08231916024808301926020929190829003018186803b15801561182557600080fd5b505afa158015611839573d6000803e3d6000fd5b505050506040513d602081101561184f57600080fd5b5051600754604080516370a0823160e01b815230600482015290516001600160a01b03909216916370a0823191602480820192602092909190829003018186803b15801561189c57600080fd5b505afa1580156118b0573d6000803e3d6000fd5b505050506040513d60208110156118c657600080fd5b50516008546001600160701b0380821691600160701b900416611b31565b6001600c55565b604080518082018252601981527f7472616e7366657228616464726573732c75696e74323536290000000000000060209182015281516001600160a01b0385811660248301526044808301869052845180840390910181526064909201845291810180516001600160e01b031663a9059cbb60e01b1781529251815160009460609489169392918291908083835b602083106119985780518252601f199092019160209182019101611979565b6001836020036101000a0380198251168184511680821785525050505050509050019150506000604051808303816000865af19150503d80600081146119fa576040519150601f19603f3d011682016040523d82523d6000602084013e6119ff565b606091505b5091509150818015611a2d575080511580611a2d5750808060200190516020811015611a2a57600080fd5b50515b611a77576040805162461bcd60e51b815260206004820152601660248201527514185c9d1e4e881514905394d1915497d1905253115160521b604482015290519081900360640190fd5b5050505050565b6000811580611a9957505080820282828281611a9657fe5b04145b610b82576040805162461bcd60e51b815260206004820152601460248201527364732d6d6174682d6d756c2d6f766572666c6f7760601b604482015290519081900360640190fd5b80820382811115610b82576040805162461bcd60e51b815260206004820152601560248201527464732d6d6174682d7375622d756e646572666c6f7760581b604482015290519081900360640190fd5b6001600160701b038411801590611b4f57506001600160701b038311155b611b92576040805162461bcd60e51b815260206004820152600f60248201526e50617274793a204f564552464c4f5760881b604482015290519081900360640190fd5b60085463ffffffff42811691600160e01b90048116820390811615801590611bc257506001600160701b03841615155b8015611bd657506001600160701b03831615155b15611c47578063ffffffff16611c0485611bef8661210a565b6001600160e01b03169063ffffffff61211c16565b600980546001600160e01b03929092169290920201905563ffffffff8116611c2f84611bef8761210a565b600a80546001600160e01b0392909216929092020190555b600880546dffffffffffffffffffffffffffff19166001600160701b03888116919091176dffffffffffffffffffffffffffff60701b1916600160701b8883168102919091176001600160e01b0316600160e01b63ffffffff871602179283905560408051848416815291909304909116602082015281517f1c411e9a96e071241c2f21f7726b17ae89e3cab4c78be50e062b03a9fffbbad1929181900390910190a1505050505050565b6001600160a01b03808416600081815260026020908152604080832094871680845294825291829020859055815185815291517f8c5be1e5ebec7d5bd14f71427d1e84f3dd0314c0f7b2291e5b200ac8c7c3b9259281900390910190a3505050565b6001600160a01b038316600090815260016020526040902054611d7d908263ffffffff611ae116565b6001600160a01b038085166000908152600160205260408082209390935590841681522054611db2908263ffffffff61214116565b6001600160a01b0380841660008181526001602090815260409182902094909455805185815290519193928716927fddf252ad1be2c89b69c2b068fc378daa952ba7f163c4a11628f55a4df523b3ef92918290030190a3505050565b600080600560009054906101000a90046001600160a01b03166001600160a01b031663017e7e586040518163ffffffff1660e01b815260040160206040518083038186803b158015611e5f57600080fd5b505afa158015611e73573d6000803e3d6000fd5b505050506040513d6020811015611e8957600080fd5b5051600b546001600160a01b038216158015945091925090611f58578015611f53576000611ecc610eb46001600160701b0388811690881663ffffffff611a7e16565b90506000611ed983611f6c565b905080821115611f50576000611f07611ef8848463ffffffff611ae116565b6000549063ffffffff611a7e16565b90506000611f2c83611f2086600363ffffffff611a7e16565b9063ffffffff61214116565b90506000818381611f3957fe5b0490508015611f4c57611f4c8782611fbe565b5050505b50505b611f64565b8015611f64576000600b555b505092915050565b60006003821115611faf575080600160028204015b81811015611fa957809150600281828581611f9857fe5b040181611fa157fe5b049050611f81565b50611fb9565b8115611fb9575060015b919050565b600054611fd1908263ffffffff61214116565b60009081556001600160a01b038316815260016020526040902054611ffc908263ffffffff61214116565b6001600160a01b03831660008181526001602090815260408083209490945583518581529351929391927fddf252ad1be2c89b69c2b068fc378daa952ba7f163c4a11628f55a4df523b3ef9281900390910190a35050565b60008183106120635781612065565b825b9392505050565b6001600160a01b038216600090815260016020526040902054612095908263ffffffff611ae116565b6001600160a01b038316600090815260016020526040812091909155546120c2908263ffffffff611ae116565b60009081556040805183815290516001600160a01b038516917fddf252ad1be2c89b69c2b068fc378daa952ba7f163c4a11628f55a4df523b3ef919081900360200190a35050565b6001600160701b0316600160701b0290565b60006001600160701b0382166001600160e01b0384168161213957fe5b049392505050565b80820182811015610b82576040805162461bcd60e51b815260206004820152601460248201527364732d6d6174682d6164642d6f766572666c6f7760601b604482015290519081900360640190fdfe50617274793a20494e53554646494349454e545f4c49515549444954595f4d494e54454450617274793a20494e53554646494349454e545f4f55545055545f414d4f554e5450617274793a20494e53554646494349454e545f4c49515549444954595f4255524e4544a265627a7a723158200f4ac45f99f69de50a28f263e5ae803d65bb021c7ee61c2e9a6e2b96b9cf34c064736f6c63430005100032454950373132446f6d61696e28737472696e67206e616d652c737472696e672076657273696f6e2c75696e7432353620636861696e49642c6164647265737320766572696679696e67436f6e747261637429a265627a7a7231582012935137ecf969a6000de8b1d24fbc8b6c31ce78cf407cb557368a5117b9ff0c64736f6c63430005100032",
  "source": "pragma solidity =0.5.16;\n\nimport './interfaces/IPartyFactory.sol';\nimport './PartyPair.sol';\n\ncontract PartyFactory is IPartyFactory {\n    bytes32 public constant INIT_CODE_PAIR_HASH = keccak256(abi.encodePacked(type(PartyPair).creationCode));\n\n    address public feeTo;\n    address public feeToSetter;\n\n    mapping(address => mapping(address => address)) public getPair;\n    address[] public allPairs;\n\n    event PairCreated(address indexed token0, address indexed token1, address pair, uint256);\n\n    constructor(address _feeToSetter) public {\n        feeToSetter = _feeToSetter;\n    }\n\n    function allPairsLength() external view returns (uint256) {\n        return allPairs.length;\n    }\n\n    function createPair(address tokenA, address tokenB) external returns (address pair) {\n        require(tokenA != tokenB, 'Party: IDENTICAL_ADDRESSES');\n        (address token0, address token1) = tokenA < tokenB ? (tokenA, tokenB) : (tokenB, tokenA);\n        require(token0 != address(0), 'Party: ZERO_ADDRESS');\n        require(getPair[token0][token1] == address(0), 'Party: PAIR_EXISTS'); // single check is sufficient\n        bytes memory bytecode = type(PartyPair).creationCode;\n        bytes32 salt = keccak256(abi.encodePacked(token0, token1));\n        assembly {\n            pair := create2(0, add(bytecode, 32), mload(bytecode), salt)\n        }\n        IPartyPair(pair).initialize(token0, token1);\n        getPair[token0][token1] = pair;\n        getPair[token1][token0] = pair; // populate mapping in the reverse direction\n        allPairs.push(pair);\n        emit PairCreated(token0, token1, pair, allPairs.length);\n    }\n\n    function setFeeTo(address _feeTo) external {\n        require(msg.sender == feeToSetter, 'Party: FORBIDDEN');\n        feeTo = _feeTo;\n    }\n\n    function setFeeToSetter(address _feeToSetter) external {\n        require(msg.sender == feeToSetter, 'Party: FORBIDDEN');\n        feeToSetter = _feeToSetter;\n    }\n}\n",
  "sourcePath": "/home/pedro/Documents/projects/avalabs/party-swap/party-swap-core/contracts/PartyFactory.sol",
  "compiler": {
    "name": "solc",
    "version": "0.5.16+commit.9c3226ce.Emscripten.clang"
  },
  "schemaVersion": "3.2.5",
  "updatedAt": "2021-07-15T01:59:44.843Z",
  "networkType": "ethereum",
  "devdoc": {
    "methods": {}
  },
  "userdoc": {
    "methods": {}
  }
}